{"abi":[{"type":"function","name":"getAsset","inputs":[{"name":"assetId","type":"bytes32","internalType":"bytes32"}],"outputs":[{"name":"","type":"tuple","internalType":"struct MemoryRegistry.AssetRecord","components":[{"name":"assetId","type":"bytes32","internalType":"bytes32"},{"name":"owner","type":"address","internalType":"address"},{"name":"kind","type":"uint8","internalType":"enum MemoryRegistry.AssetKind"},{"name":"rootHash","type":"bytes32","internalType":"bytes32"},{"name":"storageRef","type":"string","internalType":"string"},{"name":"name","type":"string","internalType":"string"},{"name":"parentAssetId","type":"bytes32","internalType":"bytes32"},{"name":"createdAt","type":"uint64","internalType":"uint64"}]}],"stateMutability":"view"},{"type":"function","name":"getAssetsByOwner","inputs":[{"name":"owner","type":"address","internalType":"address"}],"outputs":[{"name":"","type":"bytes32[]","internalType":"bytes32[]"}],"stateMutability":"view"},{"type":"function","name":"previewAssetId","inputs":[{"name":"owner","type":"address","internalType":"address"},{"name":"kind","type":"uint8","internalType":"uint8"},{"name":"rootHash","type":"bytes32","internalType":"bytes32"},{"name":"storageRef","type":"string","internalType":"string"},{"name":"name","type":"string","internalType":"string"},{"name":"parentAssetId","type":"bytes32","internalType":"bytes32"}],"outputs":[{"name":"","type":"bytes32","internalType":"bytes32"}],"stateMutability":"pure"},{"type":"function","name":"registerAsset","inputs":[{"name":"kind","type":"uint8","internalType":"uint8"},{"name":"rootHash","type":"bytes32","internalType":"bytes32"},{"name":"storageRef","type":"string","internalType":"string"},{"name":"name","type":"string","internalType":"string"},{"name":"parentAssetId","type":"bytes32","internalType":"bytes32"}],"outputs":[{"name":"assetId","type":"bytes32","internalType":"bytes32"}],"stateMutability":"nonpayable"},{"type":"event","name":"AssetRegistered","inputs":[{"name":"assetId","type":"bytes32","indexed":true,"internalType":"bytes32"},{"name":"owner","type":"address","indexed":true,"internalType":"address"},{"name":"kind","type":"uint8","indexed":true,"internalType":"uint8"},{"name":"rootHash","type":"bytes32","indexed":false,"internalType":"bytes32"},{"name":"storageRef","type":"string","indexed":false,"internalType":"string"},{"name":"parentAssetId","type":"bytes32","indexed":false,"internalType":"bytes32"},{"name":"name","type":"string","indexed":false,"internalType":"string"}],"anonymous":false},{"type":"error","name":"AssetAlreadyRegistered","inputs":[{"name":"assetId","type":"bytes32","internalType":"bytes32"}]},{"type":"error","name":"AssetNotFound","inputs":[{"name":"assetId","type":"bytes32","internalType":"bytes32"}]},{"type":"error","name":"EmptyName","inputs":[]},{"type":"error","name":"EmptyRootHash","inputs":[]},{"type":"error","name":"EmptyStorageRef","inputs":[]},{"type":"error","name":"InvalidKind","inputs":[]}],"bytecode":{"object":"0x6080604052348015600f57600080fd5b50610c698061001f6000396000f3fe608060405234801561001057600080fd5b506004361061004c5760003560e01c8063276f0934146100515780632cc3ce801461007a5780632df32e311461009a5780639086da8d146100bb575b600080fd5b61006461005f3660046106d8565b6100ce565b60405161007191906106fa565b60405180910390f35b61008d61008836600461073d565b61013a565b60405161007191906107d4565b6100ad6100a83660046108d3565b61036e565b604051908152602001610071565b6100ad6100c936600461096b565b6105e8565b6001600160a01b03811660009081526001602090815260409182902080548351818402810184019094528084526060939283018282801561012e57602002820191906000526020600020905b81548152602001906001019080831161011a575b50505050509050919050565b604080516101008101825260008082526020820181905291810182905260608082018390526080820181905260a082015260c0810182905260e0810191909152600082815260208181526040808320815161010081018352815481526001808301546001600160a01b0381169583019590955290939192840191600160a01b900460ff16908111156101ce576101ce610756565b60018111156101df576101df610756565b8152602001600282015481526020016003820180546101fd90610a12565b80601f016020809104026020016040519081016040528092919081815260200182805461022990610a12565b80156102765780601f1061024b57610100808354040283529160200191610276565b820191906000526020600020905b81548152906001019060200180831161025957829003601f168201915b5050505050815260200160048201805461028f90610a12565b80601f01602080910402602001604051908101604052809291908181526020018280546102bb90610a12565b80156103085780601f106102dd57610100808354040283529160200191610308565b820191906000526020600020905b8154815290600101906020018083116102eb57829003601f168201915b5050509183525050600582015460208083019190915260069092015467ffffffffffffffff166040909101528101519091506001600160a01b031661036857604051630a2de0f360e01b8152600481018490526024015b60405180910390fd5b92915050565b600061037e88888888888861062d565b61038e33898989898989896105e8565b6000818152602081905260409020600101549091506001600160a01b0316156103cd57604051633d39a51b60e11b81526004810182905260240161035f565b6040805161010081018252828152336020820152600091810160ff8b1660018111156103fb576103fb610756565b600181111561040c5761040c610756565b815260200189815260200188888080601f016020809104026020016040519081016040528093929190818152602001838380828437600092019190915250505090825250604080516020601f8901819004810282018101909252878152918101919088908890819084018382808284376000920182905250938552505050602080830187905267ffffffffffffffff4216604093840152858252818152908290208351815590830151600180830180546001600160a01b039093166001600160a01b0319841681178255948601519596508695939490926001600160a81b0319161790600160a01b90849081111561050657610506610756565b021790555060608201516002820155608082015160038201906105299082610ab1565b5060a0820151600482019061053e9082610ab1565b5060c0820151600582015560e0909101516006909101805467ffffffffffffffff191667ffffffffffffffff9092169190911790553360008181526001602081815260408084208054938401815584529220018490555160ff8b16919084907fc7152e36b19946d217a0eb7871ab0397edcb9040a0e8237a5347c18528a8c678906105d4908d908d908d908b908e908e90610b99565b60405180910390a450979650505050505050565b60008888888888888888604051602001610609989796959493929190610bd9565b60405160208183030381529060405280519060200120905098975050505050505050565b600160ff87161115610652576040516302b79ed360e41b815260040160405180910390fd5b8461067057604051632fe885d760e21b815260040160405180910390fd5b600083900361069257604051630828a94960e31b815260040160405180910390fd5b60008190036106b457604051632ef1310560e01b815260040160405180910390fd5b505050505050565b80356001600160a01b03811681146106d357600080fd5b919050565b6000602082840312156106ea57600080fd5b6106f3826106bc565b9392505050565b602080825282518282018190526000918401906040840190835b81811015610732578351835260209384019390920191600101610714565b509095945050505050565b60006020828403121561074f57600080fd5b5035919050565b634e487b7160e01b600052602160045260246000fd5b6002811061078a57634e487b7160e01b600052602160045260246000fd5b9052565b6000815180845260005b818110156107b457602081850181015186830182015201610798565b506000602082860101526020601f19601f83011685010191505092915050565b602081528151602082015260018060a01b03602083015116604082015260006040830151610805606084018261076c565b5060608301516080830152608083015161010060a084015261082b61012084018261078e565b905060a0840151601f198483030160c0850152610848828261078e565b91505060c084015160e084015260e084015161087161010085018267ffffffffffffffff169052565b509392505050565b803560ff811681146106d357600080fd5b60008083601f84011261089c57600080fd5b50813567ffffffffffffffff8111156108b457600080fd5b6020830191508360208285010111156108cc57600080fd5b9250929050565b600080600080600080600060a0888a0312156108ee57600080fd5b6108f788610879565b965060208801359550604088013567ffffffffffffffff81111561091a57600080fd5b6109268a828b0161088a565b909650945050606088013567ffffffffffffffff81111561094657600080fd5b6109528a828b0161088a565b989b979a50959894979596608090950135949350505050565b60008060008060008060008060c0898b03121561098757600080fd5b610990896106bc565b975061099e60208a01610879565b965060408901359550606089013567ffffffffffffffff8111156109c157600080fd5b6109cd8b828c0161088a565b909650945050608089013567ffffffffffffffff8111156109ed57600080fd5b6109f98b828c0161088a565b999c989b50969995989497949560a00135949350505050565b600181811c90821680610a2657607f821691505b602082108103610a4657634e487b7160e01b600052602260045260246000fd5b50919050565b634e487b7160e01b600052604160045260246000fd5b601f821115610aac57806000526020600020601f840160051c81016020851015610a895750805b601f840160051c820191505b81811015610aa95760008155600101610a95565b50505b505050565b815167ffffffffffffffff811115610acb57610acb610a4c565b610adf81610ad98454610a12565b84610a62565b6020601f821160018114610b135760008315610afb5750848201515b600019600385901b1c1916600184901b178455610aa9565b600084815260208120601f198516915b82811015610b435787850151825560209485019460019092019101610b23565b5084821015610b615786840151600019600387901b60f8161c191681555b50505050600190811b01905550565b81835281816020850137506000828201602090810191909152601f909101601f19169091010190565b868152608060208201526000610bb3608083018789610b70565b8560408401528281036060840152610bcc818587610b70565b9998505050505050505050565b60018060a01b038916815260ff8816602082015286604082015260c060608201526000610c0a60c083018789610b70565b8281036080840152610c1d818688610b70565b9150508260a0830152999850505050505050505056fea2646970667358221220bf3ed3bb931761afc252252d2044d4f0491a529b3dac29d261bf39a11f1db27a64736f6c634300081a0033","linkReferences":{}},"methodIdentifiers":{"getAsset(bytes32)":"2cc3ce80","getAssetsByOwner(address)":"276f0934","previewAssetId(address,uint8,bytes32,string,string,bytes32)":"9086da8d","registerAsset(uint8,bytes32,string,string,bytes32)":"2df32e31"},"id":0}