{"abi":[{"type":"function","name":"getAsset","inputs":[{"name":"assetId","type":"bytes32","internalType":"bytes32"}],"outputs":[{"name":"","type":"tuple","internalType":"struct MemoryRegistry.AssetRecord","components":[{"name":"assetId","type":"bytes32","internalType":"bytes32"},{"name":"owner","type":"address","internalType":"address"},{"name":"kind","type":"uint8","internalType":"enum MemoryRegistry.AssetKind"},{"name":"rootHash","type":"bytes32","internalType":"bytes32"},{"name":"storageRef","type":"string","internalType":"string"},{"name":"name","type":"string","internalType":"string"},{"name":"parentAssetId","type":"bytes32","internalType":"bytes32"},{"name":"createdAt","type":"uint64","internalType":"uint64"}]}],"stateMutability":"view"},{"type":"function","name":"getAssetsByOwner","inputs":[{"name":"owner","type":"address","internalType":"address"}],"outputs":[{"name":"","type":"bytes32[]","internalType":"bytes32[]"}],"stateMutability":"view"},{"type":"function","name":"previewAssetId","inputs":[{"name":"owner","type":"address","internalType":"address"},{"name":"kind","type":"uint8","internalType":"uint8"},{"name":"rootHash","type":"bytes32","internalType":"bytes32"},{"name":"storageRef","type":"string","internalType":"string"},{"name":"name","type":"string","internalType":"string"},{"name":"parentAssetId","type":"bytes32","internalType":"bytes32"}],"outputs":[{"name":"","type":"bytes32","internalType":"bytes32"}],"stateMutability":"pure"},{"type":"function","name":"registerAsset","inputs":[{"name":"kind","type":"uint8","internalType":"uint8"},{"name":"rootHash","type":"bytes32","internalType":"bytes32"},{"name":"storageRef","type":"string","internalType":"string"},{"name":"name","type":"string","internalType":"string"},{"name":"parentAssetId","type":"bytes32","internalType":"bytes32"}],"outputs":[{"name":"assetId","type":"bytes32","internalType":"bytes32"}],"stateMutability":"nonpayable"},{"type":"function","name":"transferAsset","inputs":[{"name":"assetId","type":"bytes32","internalType":"bytes32"},{"name":"newOwner","type":"address","internalType":"address"}],"outputs":[],"stateMutability":"nonpayable"},{"type":"event","name":"AssetRegistered","inputs":[{"name":"assetId","type":"bytes32","indexed":true,"internalType":"bytes32"},{"name":"owner","type":"address","indexed":true,"internalType":"address"},{"name":"kind","type":"uint8","indexed":true,"internalType":"uint8"},{"name":"rootHash","type":"bytes32","indexed":false,"internalType":"bytes32"},{"name":"storageRef","type":"string","indexed":false,"internalType":"string"},{"name":"parentAssetId","type":"bytes32","indexed":false,"internalType":"bytes32"},{"name":"name","type":"string","indexed":false,"internalType":"string"}],"anonymous":false},{"type":"event","name":"AssetTransferred","inputs":[{"name":"assetId","type":"bytes32","indexed":true,"internalType":"bytes32"},{"name":"from","type":"address","indexed":true,"internalType":"address"},{"name":"to","type":"address","indexed":true,"internalType":"address"}],"anonymous":false},{"type":"error","name":"AssetAlreadyRegistered","inputs":[{"name":"assetId","type":"bytes32","internalType":"bytes32"}]},{"type":"error","name":"AssetNotFound","inputs":[{"name":"assetId","type":"bytes32","internalType":"bytes32"}]},{"type":"error","name":"EmptyName","inputs":[]},{"type":"error","name":"EmptyRootHash","inputs":[]},{"type":"error","name":"EmptyStorageRef","inputs":[]},{"type":"error","name":"InvalidKind","inputs":[]},{"type":"error","name":"InvalidNewOwner","inputs":[]},{"type":"error","name":"NotAssetOwner","inputs":[{"name":"assetId","type":"bytes32","internalType":"bytes32"}]}],"bytecode":{"object":"0x6080604052348015600f57600080fd5b50610f1e8061001f6000396000f3fe608060405234801561001057600080fd5b50600436106100575760003560e01c8063276f09341461005c5780632cc3ce80146100855780632df32e31146100a55780636ad527f3146100c65780639086da8d146100db575b600080fd5b61006f61006a366004610917565b6100ee565b60405161007c9190610939565b60405180910390f35b61009861009336600461097c565b61015a565b60405161007c9190610a13565b6100b86100b3366004610b12565b61038e565b60405190815260200161007c565b6100d96100d4366004610baa565b610608565b005b6100b86100e9366004610bd6565b61074c565b6001600160a01b03811660009081526001602090815260409182902080548351818402810184019094528084526060939283018282801561014e57602002820191906000526020600020905b81548152602001906001019080831161013a575b50505050509050919050565b604080516101008101825260008082526020820181905291810182905260608082018390526080820181905260a082015260c0810182905260e0810191909152600082815260208181526040808320815161010081018352815481526001808301546001600160a01b0381169583019590955290939192840191600160a01b900460ff16908111156101ee576101ee610995565b60018111156101ff576101ff610995565b81526020016002820154815260200160038201805461021d90610c7d565b80601f016020809104026020016040519081016040528092919081815260200182805461024990610c7d565b80156102965780601f1061026b57610100808354040283529160200191610296565b820191906000526020600020905b81548152906001019060200180831161027957829003601f168201915b505050505081526020016004820180546102af90610c7d565b80601f01602080910402602001604051908101604052809291908181526020018280546102db90610c7d565b80156103285780601f106102fd57610100808354040283529160200191610328565b820191906000526020600020905b81548152906001019060200180831161030b57829003601f168201915b5050509183525050600582015460208083019190915260069092015467ffffffffffffffff166040909101528101519091506001600160a01b031661038857604051630a2de0f360e01b8152600481018490526024015b60405180910390fd5b92915050565b600061039e888888888888610791565b6103ae338989898989898961074c565b6000818152602081905260409020600101549091506001600160a01b0316156103ed57604051633d39a51b60e11b81526004810182905260240161037f565b6040805161010081018252828152336020820152600091810160ff8b16600181111561041b5761041b610995565b600181111561042c5761042c610995565b815260200189815260200188888080601f016020809104026020016040519081016040528093929190818152602001838380828437600092019190915250505090825250604080516020601f8901819004810282018101909252878152918101919088908890819084018382808284376000920182905250938552505050602080830187905267ffffffffffffffff4216604093840152858252818152908290208351815590830151600180830180546001600160a01b039093166001600160a01b0319841681178255948601519596508695939490926001600160a81b0319161790600160a01b90849081111561052657610526610995565b021790555060608201516002820155608082015160038201906105499082610d19565b5060a0820151600482019061055e9082610d19565b5060c0820151600582015560e0909101516006909101805467ffffffffffffffff191667ffffffffffffffff9092169190911790553360008181526001602081815260408084208054938401815584529220018490555160ff8b16919084907fc7152e36b19946d217a0eb7871ab0397edcb9040a0e8237a5347c18528a8c678906105f4908d908d908d908b908e908e90610e01565b60405180910390a450979650505050505050565b6001600160a01b03811661062f57604051632a52b3c360e11b815260040160405180910390fd5b600082815260208190526040902060018101546001600160a01b031661066b57604051630a2de0f360e01b81526004810184905260240161037f565b60018101546001600160a01b0316331461069b57604051631461f53360e11b81526004810184905260240161037f565b60018101546001600160a01b038084169116036106cb57604051632a52b3c360e11b815260040160405180910390fd5b6106d53384610820565b6001600160a01b0380831660008181526001602081815260408084208054808501825590855291842090910188905590850180546001600160a01b0319811685179091559051931692839187917f4479cc3c51aa25d29b8297b1526b29c902f1e4eb1bf941942a45cf111cd9ba5c9190a450505050565b6000888888888888888860405160200161076d989796959493929190610e41565b60405160208183030381529060405280519060200120905098975050505050505050565b600160ff871611156107b6576040516302b79ed360e41b815260040160405180910390fd5b846107d457604051632fe885d760e21b815260040160405180910390fd5b60008390036107f657604051630828a94960e31b815260040160405180910390fd5b600081900361081857604051632ef1310560e01b815260040160405180910390fd5b505050505050565b6001600160a01b0382166000908152600160205260408120805490915b818110156108f4578383828154811061085857610858610e9b565b9060005260206000200154036108ec57610873600183610eb1565b81146108bf5782610885600184610eb1565b8154811061089557610895610e9b565b90600052602060002001548382815481106108b2576108b2610e9b565b6000918252602090912001555b828054806108cf576108cf610ed2565b600190038181906000526020600020016000905590555050505050565b60010161083d565b5050505050565b80356001600160a01b038116811461091257600080fd5b919050565b60006020828403121561092957600080fd5b610932826108fb565b9392505050565b602080825282518282018190526000918401906040840190835b81811015610971578351835260209384019390920191600101610953565b509095945050505050565b60006020828403121561098e57600080fd5b5035919050565b634e487b7160e01b600052602160045260246000fd5b600281106109c957634e487b7160e01b600052602160045260246000fd5b9052565b6000815180845260005b818110156109f3576020818501810151868301820152016109d7565b506000602082860101526020601f19601f83011685010191505092915050565b602081528151602082015260018060a01b03602083015116604082015260006040830151610a4460608401826109ab565b5060608301516080830152608083015161010060a0840152610a6a6101208401826109cd565b905060a0840151601f198483030160c0850152610a8782826109cd565b91505060c084015160e084015260e0840151610ab061010085018267ffffffffffffffff169052565b509392505050565b803560ff8116811461091257600080fd5b60008083601f840112610adb57600080fd5b50813567ffffffffffffffff811115610af357600080fd5b602083019150836020828501011115610b0b57600080fd5b9250929050565b600080600080600080600060a0888a031215610b2d57600080fd5b610b3688610ab8565b965060208801359550604088013567ffffffffffffffff811115610b5957600080fd5b610b658a828b01610ac9565b909650945050606088013567ffffffffffffffff811115610b8557600080fd5b610b918a828b01610ac9565b989b979a50959894979596608090950135949350505050565b60008060408385031215610bbd57600080fd5b82359150610bcd602084016108fb565b90509250929050565b60008060008060008060008060c0898b031215610bf257600080fd5b610bfb896108fb565b9750610c0960208a01610ab8565b965060408901359550606089013567ffffffffffffffff811115610c2c57600080fd5b610c388b828c01610ac9565b909650945050608089013567ffffffffffffffff811115610c5857600080fd5b610c648b828c01610ac9565b999c989b50969995989497949560a00135949350505050565b600181811c90821680610c9157607f821691505b602082108103610cb157634e487b7160e01b600052602260045260246000fd5b50919050565b634e487b7160e01b600052604160045260246000fd5b601f821115610d1457806000526020600020601f840160051c81016020851015610cf45750805b601f840160051c820191505b818110156108f45760008155600101610d00565b505050565b815167ffffffffffffffff811115610d3357610d33610cb7565b610d4781610d418454610c7d565b84610ccd565b6020601f821160018114610d7b5760008315610d635750848201515b600019600385901b1c1916600184901b1784556108f4565b600084815260208120601f198516915b82811015610dab5787850151825560209485019460019092019101610d8b565b5084821015610dc95786840151600019600387901b60f8161c191681555b50505050600190811b01905550565b81835281816020850137506000828201602090810191909152601f909101601f19169091010190565b868152608060208201526000610e1b608083018789610dd8565b8560408401528281036060840152610e34818587610dd8565b9998505050505050505050565b60018060a01b038916815260ff8816602082015286604082015260c060608201526000610e7260c083018789610dd8565b8281036080840152610e85818688610dd8565b9150508260a08301529998505050505050505050565b634e487b7160e01b600052603260045260246000fd5b8181038181111561038857634e487b7160e01b600052601160045260246000fd5b634e487b7160e01b600052603160045260246000fdfea264697066735822122083f0f3dffd1dd8187a7f4c1e99c44e8c26580f025f2b4d81ddac84589296d8ea64736f6c634300081a0033","linkReferences":{}},"methodIdentifiers":{"getAsset(bytes32)":"2cc3ce80","getAssetsByOwner(address)":"276f0934","previewAssetId(address,uint8,bytes32,string,string,bytes32)":"9086da8d","registerAsset(uint8,bytes32,string,string,bytes32)":"2df32e31","transferAsset(bytes32,address)":"6ad527f3"},"id":0}